:100000000C945D000C9485000C9485000C94850084
:100010000C9485000C9485000C9485000C9485004C
:100020000C9485000C9485000C9485000C9485003C
:100030000C9485000C9485000C9485000C9485002C
:100040000C94C7020C9485000C9437030C94110394
:100050000C9485000C9485000C9485000C9485000C
:100060000C9485000C94850000000008000201003B
:100070000003040700000000000000000000000072
:10008000250028002B0000000000240027002A0083
:10009000040404040404040402020202020203032E
:1000A0000303030301020408102040800102040836
:1000B0001020010204081020870411241FBECFEF76
:1000C000D8E0DEBFCDBF11E0A0E0B1E0E2E8F9E0AA
:1000D00002C005900D92A634B107D9F722E0A6E43C
:1000E000B1E001C01D92AC30B207E1F710E0CDE500
:1000F000D0E004C02197FE010E94B404CC35D107A2
:10010000C9F70E9469030C94BF040C94000090E0AE
:10011000FC01EC55FF4F2491FC01E057FF4F849107
:10012000882399F090E0880F991FFC01EA57FF4F50
:10013000A591B491FC01E458FF4F859194918FB73C
:10014000F894EC91E22BEC938FBF089590E0FC01C2
:10015000E859FF4F2491FC01EC55FF4F3491FC010D
:10016000E057FF4FE491EE2309F43CC0222339F11C
:10017000233091F038F42130A9F0223001F584B514
:100180008F7D12C0273091F02830A1F02430B9F4CF
:10019000809180008F7D03C0809180008F77809355
:1001A00080000DC084B58F7784BD09C08091B000F8
:1001B0008F7703C08091B0008F7D8093B000F0E016
:1001C000EE0FFF1FE458FF4FA591B4919FB7F8942D
:1001D000611104C08C913095382302C0EC913E2B04
:1001E0003C939FBF0895CF92DF92EF92FF920F93BF
:1001F0001F93CF93DF936C017A018B01C0E0D0E0B5
:10020000CE15DF0581F0D8016D918D01D601ED91FC
:10021000FC910190F081E02DC6010995892B11F028
:100220002196EECF7E01C701DF91CF911F910F91F3
:10023000FF90EF90DF90CF900895089580E090E0D8
:100240000895FC01538D448D252F30E0842F90E0DC
:10025000821B930B541710F0CF96089501970895C1
:10026000FC01918D828D981761F0828DDF01A80FBE
:10027000B11D5D968C91928D9F5F9F73928F90E0E0
:1002800008958FEF9FEF0895FC01918D828D98174F
:1002900031F0828DE80FF11D858D90E008958FEF8C
:1002A0009FEF0895FC01918D228D892F90E0805C55
:1002B0009F4F821B91098F739927089586E491E0DF
:1002C0000E94520121E0892B09F420E0822F089539
:1002D000FC01848DDF01A80FB11DA35ABF4F2C91E3
:1002E000848D90E001968F739927848FA689B789B2
:1002F0002C93A089B1898C91837080648C93938DA9
:10030000848D981306C00288F389E02D80818F7D4B
:1003100080830895EF92FF920F931F93CF93DF9303
:10032000EC0181E0888F9B8D8C8D981305C0E88946
:10033000F989808185FD26C0F62E0B8D10E00F5FB8
:100340001F4F0F731127E02E8C8DE8120CC00FB6D3
:1003500007FCFACFE889F989808185FFF5CFCE01C6
:100360000E946801F1CF8B8DFE01E80FF11DE35A69
:10037000FF4FF0829FB7F8940B8FEA89FB89808149
:1003800080620AC09FB7F894EE89FF896083E8898C
:10039000F98980818370806480839FBF81E090E0D1
:1003A000DF91CF911F910F91FF90EF900895CF9320
:1003B000DF93EC01888D8823C9F0EA89FB8980816D
:1003C00085FD05C0A889B9898C9186FD0FC00FB63F
:1003D00007FCF5CF808185FFF2CFA889B9898C9180
:1003E00085FFEDCFCE010E946801E7CFDF91CF916D
:1003F000089580E090E0892B29F00E945E01811130
:100400000C94000008951F93CF93DF93EC01FC013F
:10041000EE5EFE4F108160E0812F0E94A600CC5E50
:10042000DE4FC88160E08C2F0E94A60061E0812F22
:100430000E94A60061E08C2FDF91CF911F910C9458
:10044000A600FF920F931F93CF93DF93062F18E020
:10045000FC01EE5EFE4FF080EC01CC5EDE4F60E012
:100460008F2D0E94A60000FF02C061E001C060E085
:1004700088810E94A60061E08F2D0E94A60006954B
:10048000115069F7DF91CF911F910F91FF9008955F
:100490001F93CF93DF93EC01FC01EE5EFE4F1081C2
:1004A00060E0812F0E94A600CC5EDE4FC88161E033
:1004B0008C2F0E94A60061E0812F0E94A60060E0C0
:1004C0008C2FDF91CF911F910C94A6001F93CF9397
:1004D000DF93EC01162F0E944802612FCE010E948B
:1004E0002102CE01DF91CF911F910C9403020F9353
:1004F0001F93CF93DF9360E480E090E00E94660258
:1005000080E090E00E94480260EC80E090E00E9471
:10051000210203EE11E0C3EFD1E0F80161918F01F8
:1005200080E090E00E942102F1E0033F1F07A9F75D
:1005300080E090E00E94030260E480E090E00E948E
:10054000660260E481E090E00E94660281E090E053
:100550000E94480260EC81E090E00E9421026991D3
:1005600081E090E00E94210282E0C330D807B9F711
:1005700081E090E00E94030264E481E090E0DF917A
:10058000CF911F910F910C9466020E94BA041F92A2
:100590000F920FB60F9211242F933F938F939F9337
:1005A000AF93BF938091080290910902A0910A0233
:1005B000B0910B023091070223E0230F2D3720F476
:1005C0000196A11DB11D05C026E8230F0296A11DAD
:1005D000B11D209307028093080290930902A09313
:1005E0000A02B0930B028091030290910402A09141
:1005F0000502B09106020196A11DB11D8093030270
:1006000090930402A0930502B0930602BF91AF91AC
:100610009F918F913F912F910F900FBE0F901F9040
:1006200018951F920F920FB60F9211242F933F939C
:100630004F935F936F937F938F939F93AF93BF93EA
:10064000EF93FF9386E491E00E946801FF91EF91A0
:10065000BF91AF919F918F917F916F915F914F91DA
:100660003F912F910F900FBE0F901F9018951F92E2
:100670000F920FB60F9211242F938F939F93EF93A6
:10068000FF93E0915601F09157018081E0915C0168
:10069000F0915D0182FD12C0908180915F018F5FBA
:1006A0008F7320916001821751F0E0915F01F0E0BB
:1006B000EA5BFE4F958F80935F0101C08081FF91BF
:1006C000EF919F918F912F910F900FBE0F901F90E0
:1006D0001895789484B5826084BD84B5816084BDAA
:1006E00085B5826085BD85B5816085BD80916E00D0
:1006F000816080936E001092810080918100826001
:10070000809381008091810081608093810080913D
:1007100080008160809380008091B100846080932C
:10072000B1008091B00081608093B00080917A0028
:10073000846080937A0080917A00826080937A004E
:1007400080917A00816080937A0080917A0080683D
:1007500080937A001092C100E0915601F091570108
:1007600082E08083E0915201F09153011082E09188
:100770005401F091550180E1808310925E01E09177
:100780005A01F0915B0186E08083E0915801F0917D
:100790005901808180618083E0915801F091590175
:1007A000808188608083E0915801F09159018081B7
:1007B00080688083E0915801F091590180818F7D9C
:1007C000808386E00E94870088E00E94870087E09F
:1007D0000E94870089E00E94870060E086E00E9416
:1007E000A60060E088E00E94A60060E087E00E942A
:1007F000A60060E089E00E94A60064E480E090E04A
:100800000E94660264E481E090E00E94660268E86B
:1008100080E090E00E94660268E881E090E00E943B
:10082000660293EFE92E91E0F92E01E010E086E1F7
:10083000C82E81E0D82EC3EED1E0FE01A60166E20B
:1008400071E080E090E08830910564F09801DB0170
:100850000C9002C0220F331F0A94E2F73081232B41
:10086000208312C0DA012D913C91D901AD51BE4FC8
:100870005096BC9050979801082E01C0220F0A9400
:10088000EAF72B2950962C9301966E5F7F4F8031AB
:100890009105C9F64E5F5F4F3196B1E0E33FFB072C
:1008A00071F60E947702A6E2B1E080E090E0883025
:1008B000910564F098010C9002C0220F331F0A9436
:1008C000E2F7209538812323288310C0F601208188
:1008D0003181F901ED51FE4F9801082E01C0220F20
:1008E0000A94EAF7209530892323208B01961296EB
:1008F00080319105E1F6F2E0CF0ED11C2196EC1685
:10090000FD0689F60E9477020E94F90190CFE6E485
:10091000F1E01382128288EE93E0A0E0B0E08483DD
:100920009583A683B78384E091E09183808385ECEF
:1009300090E09587848784EC90E09787868780ECA9
:1009400090E0918B808B81EC90E0938B828B82EC9A
:1009500090E0958B848B86EC90E0978B868B118E44
:10096000128E138E148E0895EE0FFF1F0590F491D2
:10097000E02D099481E090E0F8940C94BF04F89481
:02098000FFCFA7
:10098200000000008A01F3002101D7015201300169
:100992004401070906080F000E000D000C000B00B1
:1009A2000A00090008000700060005000400030011
:1009B2000200010000000700060005000400030019
:0609C2000200010000002C
:00000001FF
